:020000040800F2
:10000000D82600205D0E0008BD0E0008BD0E0008B9
:10001000BD0E0008BD0E0008BD0E00080000000067
:10002000000000000000000000000000BD0E0008FD
:10003000BD0E000800000000BD0E00087901000898
:10004000BD0E0008BD0E0008BD0E0008BD0E000864
:10005000BD0E0008BD0E0008BD0E0008BD0E000854
:10006000BD0E0008BD0E0008BD0E0008BD0E000844
:10007000BD0E0008BD0E0008BD0E0008BD0E000834
:10008000BD0E0008BD0E0008BD0E0008BD0E000824
:10009000BD0E0008BD0E0008BD0E0008BD0E000814
:1000A000BD0E0008BD0E0008BD0E0008BD0E000804
:1000B000BD0E0008BD0E0008BD0E0008BD0E0008F4
:1000C000BD0E0008BD0E0008BD0E0008BD0E0008E4
:1000D000BD0E000885010008D10100081D020008BE
:1000E000BD0E0008BD0E0008BD0E00080000000097
:1000F0000000000000000000000000000000000000
:1001000000000000000000005FF808F110B5054C89
:10011000237833B9044B13B10448AFF300800123B3
:10012000237010BDD8090020000000005085000891
:100130000C4B43B10C4810B50C49AFF300800C4890
:10014000036823B910BD0A48036833B97047094BE7
:10015000002BF7D0BDE810401847064B002BF5D018
:10016000184700BF0000000050850008DC0900208F
:10017000D40900200000000080B500AF01F0C4F8F1
:1001800000BF80BD80B500AF40F226610F4801F08E
:10019000EBFC0346012B0CBF01230023DBB2002B39
:1001A00002D001F0B3FF0FE040F22551074801F003
:1001B000DBFC0346012B0CBF01230023DBB2002B29
:1001C00002D0024802F026F800BF80BD003801408E
:1001D00080B500AF40F226610F4801F0C5FC034630
:1001E000012B0CBF01230023DBB2002B02D001F056
:1001F000B9FF0FE040F22551074801F0B5FC034676
:10020000012B0CBF01230023DBB2002B02D00248DC
:1002100002F000F800BF80BD0044004080B500AF90
:1002200040F226610F4801F09FFC0346012B0CBFF2
:1002300001230023DBB2002B02D001F0BFFF0FE04F
:1002400040F22551074801F08FFC0346012B0CBFFB
:1002500001230023DBB2002B02D0024801F0DAFFB9
:1002600000BF80BD0048004080B485B000AF78601A
:1002700039600023FB817B681B88FB817B682E4AE9
:10028000934213D07B682D4A93420FD07B68B3F121
:10029000804F0BD07B682A4A934207D07B68294A5B
:1002A000934203D07B68284A934208D1FB8923F00C
:1002B0007003FB813B685A88FB891343FB817B6891
:1002C000224A93420CD07B68214A934208D0FB8992
:1002D00023F44073FB813B68DA88FB891343FB817D
:1002E0007B68FA891A803B689A887B689A853B68A4
:1002F0001A887B681A857B680F4A93420FD07B6807
:100300000E4A93420BD07B68124A934207D07B6817
:10031000114A934203D07B68104A934204D13B6850
:100320001B7A9AB27B681A867B6801229A8200BF88
:100330001437BD4680BC7047002C0140003401409A
:100340000004004000080040000C00400010004085
:1003500000140040004001400044014000480140BA
:1003600080B485B000AF7860396000237B810023C2
:10037000FB810023BB817B681B8C9BB223F00103B4
:100380009AB27B681A847B681B8CFB817B689B8894
:10039000BB817B681B8B7B817B8923F070037B8116
:1003A0007B8923F003037B813B681A887B89134395
:1003B0007B81FB8923F00203FB813B681A89FB895F
:1003C0001343FB813B685A88FB891343FB817B689D
:1003D000244A93420FD07B68234A93420BD07B6818
:1003E000224A934207D07B68214A934203D07B681C
:1003F000204A934223D1FB8923F00803FB813B6809
:100400005A89FB891343FB81FB8923F00403FB8199
:100410003B689A88FB891343FB81BB8923F4807373
:10042000BB81BB8923F40073BB813B689A89BB897C
:100430001343BB813B68DA89BB891343BB817B686B
:10044000BA899A807B687A891A833B68DA887B68E4
:100450009A867B68FA891A8400BF1437BD4680BC2F
:10046000704700BF002C01400034014000400140B3
:10047000004401400048014080B485B000AF78607E
:10048000396000237B810023FB810023BB817B68D3
:100490001B8C9BB223F010039AB27B681A847B6892
:1004A0001B8CFB817B689B88BB817B681B8B7B8162
:1004B0007B8923F4E0437B817B8923F440737B8138
:1004C0003B681B881B029AB27B8913437B81FB89A3
:1004D00023F02003FB813B681B891B019AB2FB8937
:1004E0001343FB813B685B881B019AB2FB89134372
:1004F000FB817B68224A934203D07B68214A934266
:100500002BD1FB8923F08003FB813B685B891B01B6
:100510009AB2FB891343FB81FB8923F04003FB81E3
:100520003B689B881B019AB2FB891343FB81BB8903
:1005300023F48063BB81BB8923F40063BB813B68E8
:100540009B899B009AB2BB891343BB813B68DB89C3
:100550009B009AB2BB891343BB817B68BA899A809E
:100560007B687A891A833B68DA887B681A877B689C
:10057000FA891A8400BF1437BD4680BC704700BF9B
:10058000002C01400034014080B485B000AF786099
:10059000396000237B810023FB810023BB817B68C2
:1005A0001B8C9BB223F480739AB27B681A847B689D
:1005B0001B8CFB817B689B88BB817B689B8B7B81D1
:1005C0007B8923F070037B817B8923F003037B818C
:1005D0003B681A887B8913437B81FB8923F4007372
:1005E000FB813B681B891B029AB2FB891343FB8189
:1005F0003B685B881B029AB2FB891343FB817B68D3
:10060000224A934203D07B68214A93422BD1FB8933
:1006100023F40063FB813B685B891B029AB2FB8970
:100620001343FB81FB8923F48063FB813B689B8838
:100630001B029AB2FB891343FB81BB8923F48053CD
:10064000BB81BB8923F40053BB813B689B891B01A1
:100650009AB2BB891343BB813B68DB891B019AB209
:10066000BB891343BB817B68BA899A807B687A898E
:100670009A833B68DA887B689A877B68FA891A8450
:1006800000BF1437BD4680BC704700BF002C01403E
:100690000034014080B485B000AF78603960002339
:1006A000BB8100237B810023FB817B681B8C9BB279
:1006B00023F480539AB27B681A847B681B8C7B81FD
:1006C0007B689B88FB817B689B8BBB81BB8923F408
:1006D000E043BB81BB8923F44073BB813B681B882B
:1006E0001B029AB2BB891343BB817B8923F400535D
:1006F0007B813B681B891B039AB27B8913437B81F7
:100700003B685B881B039AB27B8913437B817B68C0
:10071000124A934203D07B68114A93420AD1FB8963
:1007200023F48043FB813B689B899B019AB2FB8940
:100730001343FB817B68FA899A807B68BA899A8324
:100740003B68DA887B68A3F840207B687A891A8442
:1007500000BF1437BD4680BC704700BF002C01406D
:100760000034014080B483B000AF78607B684FF6FE
:10077000FF729A807B6800221A807B680022DA80F0
:100780007B6800225A807B6800221A7200BF0C37F7
:10079000BD4680BC704780B483B000AF78607B6892
:1007A00000221A807B6800225A807B6800229A808F
:1007B0007B680022DA807B6800221A817B68002235
:1007C0005A817B6800229A817B680022DA8100BF0F
:1007D0000C37BD4680BC704780B483B000AF7860F2
:1007E0000B46FB70FB78002B08D07B681B889BB204
:1007F00043F001039AB27B681A8007E07B681B888C
:100800009BB223F001039AB27B681A8000BF0C37B9
:10081000BD4680BC704780B483B000AF78600B46A3
:10082000FB70FB78002B0CD07B68B3F844309BB294
:100830006FEA43436FEA53439AB27B68A3F84420BC
:1008400009E07B68B3F844309BB2C3F30E039AB25D
:100850007B68A3F8442000BF0C37BD4680BC7047BE
:1008600080B483B000AF78600B46FB70FB78002B40
:1008700008D07B681B889BB243F080039AB27B68E8
:100880001A8007E07B681B889BB223F080039AB232
:100890007B681A8000BF0C37BD4680BC70470000E3
:1008A00080B500AF154A154B1B6843F00103136078
:1008B0001249124B5A68124B13404B600F4A0F4BB0
:1008C0001B6823F0847323F4803313600B4A0B4BB3
:1008D0001B6823F480231360084A084B5B6823F4E9
:1008E000FE035360054B4FF41F029A6000F00CF8B2
:1008F000044B4FF000629A6000BF80BD00100240C0
:100900000000FFF800ED00E080B500AF00F002F855
:1009100000BF80BD80B483B000AF00237B600023A4
:100920003B603A4A394B1B6843F480331360374BC2
:100930001B6803F400333B607B6801337B603B68DA
:10094000002B03D17B68B3F5A06FF0D12F4B1B6850
:1009500003F40033002B02D001233B6001E00023AD
:100960003B603B68012B4BD1294A294B1B6843F064
:1009700010031360264A264B1B6823F00303136001
:10098000234A234B1B6843F0020313601F4A1F4B8B
:100990005B6853601D4A1D4B5B6853601B4A1B4BD1
:1009A0005B6843F480635360184A184B5B6823F418
:1009B0007C135360154A154B5B6843F4E81353608E
:1009C000124A124B1B6843F08073136000BF0F4B39
:1009D0001B6803F00073002BF9D00C4A0B4B5B68CB
:1009E00023F003035360094A084B5B6843F002039A
:1009F000536000BF054B5B6803F00C03082BF9D173
:100A000000BF0C37BD4680BC704700BF00100240DD
:100A10000020024080B483B000AF78607B68002281
:100A20001A707B6800221A827B6800225A827B68D7
:100A300000229A827B680022DA827B6800221A8375
:100A40007B6800225A837B684FF00002DA6100BFA6
:100A50000C37BD4680BC704780B582B000AF78606F
:100A60007868FFF7D7FF7B6818460837BD4680BD1A
:100A700080B485B000AFF860B9603B601346FB807E
:100A8000FB6802221A70FB68BA685A60FB68FA8831
:100A90001A81FB683A68DA60FB683A8B1A82FB6855
:100AA000BA8B9A82FB683A8C1A8300BF1437BD4612
:100AB00080BC704780B584B000AF78600023FB73C2
:100AC0007B681B78002B01D1012319E0786800F0C6
:100AD0008BF80246FB7B1344002B14BF0123002339
:100AE000FB73FB7B83F00103DBB2002B02D07B683E
:100AF00001221A704FF00001786800F005F8FB7BC6
:100B000018461037BD4680BD90B583B000AF786001
:100B100039607B681B78012B61D14FF00001386888
:100B200002F02CFB0346002B03D04FF000033B6088
:100B30000AE04FF07E51386802F03EFB0346002B7E
:100B400002D04FF07E533B607B683A68DA617B6885
:100B5000DC697B685B8A184602F01EF90346194679
:100B6000204602F06DF90346184602F02FFB0346BB
:100B70009AB27B685A837B685B8B1A467B685B8A78
:100B80009A4203DD7B685A8A7B685A837B681B8A9A
:100B9000012B05D17B68DB687A68528B9A861FE04F
:100BA0007B681B8A022B05D17B68DB687A68528BD5
:100BB0001A8715E07B681B8A032B05D17B68DB68ED
:100BC0007A68528B9A870BE07B681B8A042B07D1CB
:100BD0007B68DB687A68528BA3F8402000E000BF96
:100BE0000C37BD4690BD000080B590B000AF786076
:100BF000002387F83F3007F12803184600F0C6FBB2
:100C00007B68DB688D4A93421CD17B6B7A68928A41
:100C1000B3FBF2F38A4AA2FB0323DB0B9BB25B001C
:100C20009AB27B68DA827B6B7A68928A11467A681C
:100C3000D28A013202FB01F2B3FBF2F39AB27B6873
:100C40005A821DE03B6B5B007A68928AB3FBF2F339
:100C50007B4AA2FB0323DB0B9BB25B009AB27B684F
:100C6000DA823B6B5B007A68928A11467A68D28A94
:100C7000013202FB01F2B3FBF2F39AB27B685A82B3
:100C80007B685B686F4A934204D10121042000F025
:100C90002DFC1CE07B685B686B4A934204D1012108
:100CA000082000F023FC12E07B685B68674A9342EF
:100CB00004D10121102000F019FC08E07B685B687A
:100CC000634A934203D10121202000F00FFC07F179
:100CD0002403184600F0B1F97B681B89BB841823F4
:100CE00087F82730032387F826307B685B6807F195
:100CF00024021146184600F0E4F87B68DB684F4A8E
:100D0000934205D101214FF4006000F0EFFB1CE09D
:100D10007B68DB68B3F1804F04D10121012000F032
:100D200003FC12E07B68DB684A4A934204D101214C
:100D3000022000F0F9FB08E07B68DB68464A93423A
:100D400003D10121042000F0EFFB0121012000F07C
:100D5000CDFB07F118031846FFF704FD7B685B8A9B
:100D6000BB837B68DB8A3B8300237B83002387F87C
:100D700020307B68DB6807F1180211461846FFF740
:100D800073FA07F108031846FFF705FD7B681B8B14
:100D90003B8101237B810023FB8100233B827B6815
:100DA0001B8A012B08D17B68DB6807F1080211461A
:100DB0001846FFF7D5FA25E07B681B8A022B08D17D
:100DC0007B68DB6807F1080211461846FFF754FB01
:100DD00018E07B681B8A032B08D17B68DB6807F16E
:100DE000080211461846FFF7CFFB0BE07B681B8A11
:100DF000042B07D17B68DB6807F10802114618460F
:100E0000FFF748FC7B68DB680C4A934203D1012161
:100E10000A48FFF700FD7B68DB6801211846FFF7F1
:100E20001FFD7B68DB6801211846FFF7D5FC97F8AA
:100E30003F3018464037BD4680BD00BF002C014002
:100E40000180008000080140000C014000100140BA
:100E500000140140000400400008004080B582B04A
:100E600000AF114B7B60114B3B6007E03B681A1DE4
:100E70003A607A68111D796012681A603B680C4A02
:100E80009342F3D30B480C494FF000028842B8BF9D
:100E900040F8042BFADBFFF703FD00F053F900BF25
:100EA0000837BD4680BD00BFC8860008000000208E
:100EB000D8090020D8090020D422002080B400AF37
:100EC000FEE780B489B000AF786039600023FB6131
:100ED00000233B610023BB610023FB6000237B6197
:100EE0000023BB603B68DB7803F00F03FB613B68CA
:100EF000DB7803F01003002B05D03B689B781A4683
:100F0000FB691343FB613B681B88DBB2002B44D0B9
:100F10007B681B687B610023BB6138E00122BB69F1
:100F200002FA03F3FB603B681B881A46FB68134018
:100F30003B613A69FB689A4226D1BB699B00FB6022
:100F40000F22FB6802FA03F3BB60BB68DB437A69DC
:100F500013407B61FA69FB6802FA03F37A69134371
:100F60007B613B68DB78282B05D10122BB699A4065
:100F70007B685A6108E03B68DB78482B04D101228A
:100F8000BB699A407B681A61BB690133BB61BB696D
:100F9000072BC3D97B687A691A603B681B88FF2BD3
:100FA00046D97B685B687B610023BB613AE0BB6923
:100FB0000833012202FA03F3FB603B681B881A46E0
:100FC000FB6813403B613A69FB689A4227D1BB69D1
:100FD0009B00FB600F22FB6802FA03F3BB60BB6857
:100FE000DB437A6913407B61FA69FB6802FA03F319
:100FF0007A6913437B613B68DB78282B05D1BB6999
:10100000083301229A407B685A613B68DB78482BA1
:1010100005D1BB69083301229A407B681A61BB691C
:101020000133BB61BB69072BC1D97B687A695A6000
:1010300000BF2437BD4680BC704780B483B000AF8A
:1010400078607B684FF6FF721A807B6802229A7084
:101050007B680422DA7000BF0C37BD4680BC704745
:1010600080B485B000AF78600B467B800023FB73B3
:101070007B689A687B881340002B02D00123FB73A6
:1010800001E00023FB73FB7B18461437BD4680BC90
:10109000704780B483B000AF78600B467B80134606
:1010A0007B707B78002B03D07A887B681A6102E022
:1010B0007A887B685A6100BF0C37BD4680BC704798
:1010C00080B584B004AF00F0DDF84FF416530293FE
:1010D000164B01934FF400630093154B4FF480625D
:1010E0001349144800F060FE124800F07FFE102300
:1010F0004FF480520E49104800F08BFA0E4800F071
:10110000A4FA602302934FF4FA630193022300933D
:101110000A4B4FF4005206490948FFF7A9FC08485A
:10112000FFF7C8FC00BFBD4680BD00BF00480040BF
:10113000000C0140200A0020F409002000040040B7
:10114000000A002080B582B000AF00237B60FFF76B
:10115000B7FF00F0C9F802467B68D31A40F2F312D9
:1011600093428CBF01230023DBB2002BF1D000F0AF
:10117000BBF803467B60044800F08CFA034904483E
:1011800000F059FEE5E700BFF4090020F0810008F7
:10119000200A002080B582B000AF786039607B689B
:1011A000012B0DD13B684FF6FF72934208D10648E0
:1011B00000F023FA0548FFF74FFC054800F0DDFD7D
:1011C00000BF0837BD4680BDF4090020000A00209A
:1011D000200A002080B500AF4FF6FF710120FFF715
:1011E000D9FF80BD80B483B000AF03463960FB7186
:1011F00097F90730002B0DDA0F4997F90730DBB26A
:1012000003F00F03043B3A68D2B21201D2B20B448E
:101210001A760BE0094A97F9073018463B68DBB2AB
:101220001B01D9B213180A4683F8002300BF0C37FC
:10123000BD4680BC704700BF00ED00E000E100E06B
:1012400080B582B000AF78607B68B3F1807F01D356
:10125000012311E00A4A7B6823F07F43013B53607E
:101260000F214FF0FF30FFF7BDFF054B00229A60C2
:10127000034B07221A60002318460837BD4680BD7D
:1012800010E000E080B586B000AF0023FB753B4660
:10129000184600F07BF83B680D4AA2FB03239B0C29
:1012A0001846FFF7CDFF3B680A4A13607B680A4A7D
:1012B0001360BB68094A1360FB68094A13603B6905
:1012C000084A1360FB7D18461837BD4680BD00BF35
:1012D00083DE1B43580C00205C0C0020600C0020B7
:1012E000640C0020680C002080B400AF044B1B6825
:1012F000044AA2FB03239B091846BD4680BC7047E5
:10130000540C0020D34D621080B400AF044B1B6816
:101310000133034A136000BFBD4680BC704700BF65
:10132000540C002080B483B000AF78607B6803F574
:10133000A153083300221A607B6803F5A1530C33D4
:1013400000221A607B6818460C37BD4680BC704787
:1013500080B582B000AF786039607B68012B07D11F
:101360003B684FF6FF72934202D10348FFF7DAFF62
:1013700000BF0837BD4680BDC00D002080B500AF5E
:101380004FF6FF710120FFF7E3FF80BD80B487B007
:1013900000AF786000237B6100233B610023FB608A
:1013A0000023BB604C4B5B6803F00C037B617B69E3
:1013B000042B07D0082B09D0002B33D17B68474A78
:1013C0001A6033E07B68454A1A602FE0424B5B6845
:1013D00003F470133B61404B5B6803F48033FB60A4
:1013E0003B699B0C02333B61FB68002B06D13B69D8
:1013F0003B4A02FB03F27B681A6017E0364B5B68DE
:1014000003F40033002B06D03B69354A02FB03F29C
:101410007B681A600AE03B69304A02FB03F27B6892
:101420001A6003E07B682D4A1A6000BF2A4B5B6894
:1014300003F0F0037B617B691B097B61294A7B69AF
:1014400013441B78DBB2BB607B681A68BB68DA4068
:101450007B685A60204B5B6803F4E0637B617B69C7
:101460001B0A7B611F4A7B6913441B78DBB2BB609C
:101470007B685A68BB68DA407B689A60164B5B6889
:1014800003F460537B617B69DB0A7B61154A7B69EE
:1014900013441B78DBB2BB607B685A68BB68DA40D8
:1014A0007B68DA600C4B5B6803F440437B617B69CB
:1014B0009B0B7B610C4A7B6913441B78DBB2BB60DE
:1014C0007B68DA68BB68B2FBF3F27B681A6100BF25
:1014D0001C37BD4680BC70470010024000127A00E5
:1014E00000093D00000000201000002080B483B0FF
:1014F00000AF78600B46FB70FB78002B06D00949E3
:10150000084B9A697B6813438B6106E00549054BDC
:101510009A697B68DB4313408B6100BF0C37BD4683
:1015200080BC70470010024080B483B000AF786088
:101530000B46FB70FB78002B06D00949084BDA6993
:101540007B681343CB6106E00549054BDA697B688C
:10155000DB431340CB6100BF0C37BD4680BC7047F6
:101560000010024080B483B000AF78600B46FB707F
:10157000FB78002B06D00949084BDA687B681343D7
:10158000CB6006E00549054BDA687B68DB43134016
:10159000CB6000BF0C37BD4680BC704700100240D6
:1015A00080B483B000AF78600B46FB70FB78002BF3
:1015B00006D00949084B1A697B6813430B6106E0A2
:1015C0000549054B1A697B68DB4313400B6100BF7B
:1015D0000C37BD4680BC70470010024080B483B019
:1015E00000AF78607B6800221A707B6800225A7016
:1015F00000BF0C37BD4680BC704780B582B000AFDD
:1016000078607868FFF7EAFF7B6818460837BD46C0
:1016100080BD80B485B000AFF860B96011461A464D
:101620000B46FB8013467B71FB6802221A70FB6835
:10163000BA685A60FB68FA881A81FB687A799A72EC
:1016400000BF1437BD4680BC704780B584B000AF82
:1016500078600023FB737B681B78002B01D101238A
:1016600014E0786800F078F80246FB7B1344002B06
:1016700014BF01230023FB73FB7B83F00103DBB268
:10168000002B02D07B6801221A70FB7B18461037B2
:10169000BD4680BD80B582B000AF78607B681B78A6
:1016A000012B0CD1786800F036F80346002B03D0EC
:1016B000786800F01CF802E0786800F004F800BFD9
:1016C0000837BD4680BD80B582B000AF78607B68CA
:1016D0001B78012B07D17B6858687B681B89012226
:1016E0001946FFF7D6FC00BF0837BD4680BD80B560
:1016F00082B000AF78607B681B78012B07D17B68D4
:1017000058687B681B8900221946FFF7C2FC00BF9E
:101710000837BD4680BD80B582B000AF78607B6879
:101720001B78012B01D0002311E07B685A687B688D
:101730001B8919461046FFF793FC0346002B14BF84
:1017400001230023DAB27B685A707B685B78184605
:101750000837BD4680BD000080B584B000AF78601A
:101760000023FB737B685B681F4A934204D101210D
:101770000420FFF7BBFE1CE07B685B681B4A9342BA
:1017800004D101210820FFF7B1FE12E07B685B68FD
:10179000174A934204D101211020FFF7A7FE08E069
:1017A0007B685B68134A934203D101212020FFF735
:1017B0009DFE07F108031846FFF73FFC7B681B8975
:1017C0003B817B689B7AFB720323BB727B685B68FF
:1017D00007F1080211461846FFF773FBFB7B18461A
:1017E0001037BD4680BD00BF00080140000C01401D
:1017F000001001400014014080B582B000AF786055
:101800007B68264A93420AD101214FF48040FFF7BA
:10181000A9FE00214FF48040FFF7A4FE3AE07B6868
:101820001F4A93420AD101214FF40030FFF7B8FE5E
:1018300000214FF40030FFF7B3FE2BE07B68194A1C
:1018400093420AD101214FF48020FFF7A9FE002125
:101850004FF48020FFF7A4FE1CE07B68124A9342FD
:101860000AD101214FF40020FFF79AFE00214FF426
:101870000020FFF795FE0DE07B680C4A934209D1EA
:1018800001214FF48010FFF78BFE00214FF48010F0
:10189000FFF786FE00BF0837BD4680BD0038014017
:1018A0000044004000480040004C00400050004010
:1018B00080B58CB000AF786039600023FB620023F4
:1018C000BB6200237B6200233B620023FB617B68D9
:1018D000FB617B681B8A9BB2FB62FA6A4CF6FF7362
:1018E0001340FB623B68DB881A46FB6A1343FB62CA
:1018F000FB6A9AB27B681A827B689B899BB2FB6207
:10190000FA6A4EF6F3131340FB623B689A883B6811
:101910001B8913439AB23B685B8913439BB21A46F7
:10192000FB6A1343FB62FB6A9AB27B689A817B680D
:101930009B8A9BB2FB62FA6A4FF6FF431340FB623D
:101940003B689B891A46FB6A1343FB62FB6A9AB2A7
:101950007B689A8207F108031846FFF717FDFB69B9
:101960002E4A934202D17B69BB6201E03B69BB62B4
:101970007B689B899BB21BB2002B0CDABA6A1346B8
:101980009B0013449A001A443B681B685B00B2FB3F
:10199000F3F37B620BE0BA6A13469B0013449A0090
:1019A0001A443B681B689B00B2FBF3F37B627B6AC3
:1019B0001B4AA2FB03235B091B01FB62FB6A1B0999
:1019C000642202FB03F37A6AD31A3B627B689B8929
:1019D0009BB21BB2002B0CDA3B6ADB003233104A9D
:1019E000A2FB03235B0903F00703FA6A1343FB62BC
:1019F0000BE03B6A1B013233094AA2FB03235B095C
:101A000003F00F03FA6A1343FB62FB6A9AB27B6826
:101A10001A8100BF3037BD4680BD00BF003801408D
:101A20001F85EB5180B483B000AF78607B684FF4C2
:101A300016521A607B6800229A807B680022DA8046
:101A40007B6800221A817B680C225A817B68002205
:101A50009A8100BF0C37BD4680BC704780B483B00C
:101A600000AF78600B46FB70FB78002B08D07B68DA
:101A70009B899BB243F400539AB27B689A8107E03A
:101A80007B689B899BB223F400539AB27B689A814E
:101A900000BF0C37BD4680BC704780B487B000AF34
:101AA00078600B467B8013467B7000233B610023EC
:101AB000FB600023BB6000237B617B687B617B88CC
:101AC000DBB25B09DBB23B617B8803F01F03FB6089
:101AD0000122FB6802FA03F3BB603B69012B03D1CF
:101AE0007B690C337B6109E03B69022B03D17B6985
:101AF00010337B6102E07B6914337B617B78002BC0
:101B000006D07B697A691168BA680A431A6006E0F0
:101B10007B697A691168BA68D2430A401A6000BFCB
:101B20001C37BD4680BC704780B483B000AF78607E
:101B30000B467B807B88C3F308039AB27B689A804C
:101B400000BF0C37BD4680BC704780B483B000AF87
:101B500078607B689B889BB2C3F308039BB21846EE
:101B60000C37BD4680BC704780B487B000AF78604A
:101B70000B467B800023FB6000237B610023BB605E
:101B80000023FB747B88DBB25B09DBB2BB607B8824
:101B900003F01F037B6101227B6902FA03F37B617F
:101BA000BB68012B07D17B689B899BB21A467B6976
:101BB00013407B6111E0BB68022B07D17B681B8A55
:101BC0009BB21A467B6913407B6106E07B689B8A67
:101BD0009BB21A467B6913407B617B881B0A9BB2D0
:101BE000FB600122FB6802FA03F3FB607B681B8841
:101BF0009BB21A46FB681340FB607B69002B05D043
:101C0000FB68002B02D00123FB7401E00023FB746E
:101C1000FB7C18461C37BD4680BC704780B485B03D
:101C200000AF78600B467B800023FB810023BB81E3
:101C30007B881B0AFB81FB89012202FA03F3BB812B
:101C4000BB89DB439AB27B681A8000BF1437BD465C
:101C500080BC704780B485B000AF78600A4B1B68C9
:101C6000002B02D1084B094A1A60074B1B68FB6026
:101C7000054B1A687B681344034A1360FB681846D7
:101C80001437BD4680BC7047F4210020D4220020C8
:101C900080B400AFFEE7000080B487B000AF78608A
:101CA00000237B6100233B610F23FB607B68DB78B3
:101CB000002B3AD0274BDB68DB431B0A03F00703FA
:101CC0007B617B69C3F104033B61FA687B6922FA9B
:101CD00003F3FB607B685B781A463B6902FA03F307
:101CE0007B617B689B781A46FB6813407A691343D3
:101CF0007B617B691B017B61174A7B681B78796973
:101D0000C9B213440A4683F80023134A7B681B7840
:101D10005B09DBB218467B681B7803F01F030121C7
:101D200001FA03F342F820300FE00B497B681B787F
:101D30005B09DBB218467B681B7803F01F030122A6
:101D40009A4000F1200341F8232000BF1C37BD4614
:101D500080BC704700ED00E000E100E080B483B09B
:101D600000AF78607B6800221A707B6800229A615D
:101D700000BF0C37BD4680BC704780B582B000AF55
:101D800078607B681C33184600F0FAFA7B6803F52C
:101D90009473184600F0F4FA7868FFF7DFFF7B6869
:101DA00018460837BD4680BD80B485B000AFF860E6
:101DB000B9603B601346FB80FB6802221A70FB6827
:101DC000BA685A60FB68FA881A81FB683A68DA6078
:101DD000FB683A8B1A82FB68FA695A61FB683A6AB7
:101DE0009A6100BF1437BD4680BC704780B584B08F
:101DF00000AF78600023FB737B681B78002B01D158
:101E0000012314E0786800F055F80246FB7B134488
:101E1000002B14BF01230023FB73FB7B83F0010322
:101E2000DBB2002B02D07B6801221A70FB7B1846C4
:101E30001037BD4680BD0EB480B5C5B000AF3B1DA8
:101E400018603B1D1B681B78012B2AD107F5907287
:101E500007F108031A6007F1080307F10C001A687C
:101E6000D7F81C1102F036FA0023C7F80C3107F13D
:101E70000C02D7F80C3113441B78002B12D03B1DF9
:101E80001B68586907F10C02D7F80C3113441B7812
:101E9000194600F003FAD7F80C310133C7F80C31BA
:101EA000E5E700BF07F58A77BD46BDE8804003B08F
:101EB0007047000080B58AB000AF7860002387F8D3
:101EC00027307B685B68844A934204D07B68DB6878
:101ED000814A934204D101210420FFF707FB2BE044
:101EE0007B685B687D4A934204D07B68DB687B4AF1
:101EF000934204D101210820FFF7F8FA1CE07B6827
:101F00005B68774A934204D07B68DB68744A9342EB
:101F100004D101211020FFF7E9FA0DE07B685B682E
:101F2000704A934204D07B68DB686E4A934203D1C7
:101F300001212020FFF7DAFA07F120031846FFF706
:101F40007CF87B681B893B84182387F823300323A4
:101F500087F822307B685B6807F12002114618463B
:101F6000FEF7AFFF7B681B8A3B84042387F823308E
:101F70007B68DB6807F1200211461846FEF7A1FFD7
:101F80007B685B691846FFF737FC01210120FFF7EA
:101F9000ADFA7B685B69544A934205D101214FF445
:101FA0008040FFF7A3FA14E07B685B694F4A9342D5
:101FB00005D101214FF40030FFF7B6FA09E07B6844
:101FC0005B694B4A934204D101214FF48020FFF713
:101FD000ABFA07F110031846FFF724FD7B689B69F5
:101FE0003B610C237B8300233B830023FB82002384
:101FF000BB827B685B6907F1100211461846FFF748
:1020000057FC7B685B69384A934202D125233B73B6
:102010000EE07B685B69354A934202D126233B730D
:1020200006E07B685B69324A934201D127233B7308
:1020300000237B730023BB730123FB7307F10C03A5
:102040001846FFF729FE7B685B69274A934209D14E
:102050007B6803F59473274A13607B681C33264A18
:1020600013601CE07B685B69204A934209D17B685E
:1020700003F59473214A13607B681C33204A136074
:102080000DE07B685B691A4A934208D17B6803F5CF
:1020900094731C4A13607B681C331B4A13607B6873
:1020A0005B6901211846FFF7D9FC7B685B69012257
:1020B00040F226611846FFF7F0FC7B685B6901225D
:1020C00040F225511846FFF7E8FC97F827301846EC
:1020D0002837BD4680BD00BF00080140000C01400C
:1020E000001001400014014000380140004400404D
:1020F00000480040FC21002008220020002200208F
:102100000C220020042200201022002080B500AF05
:10211000114B1B68184600F045F90346002B0CBF15
:1021200001230023DBB2002B0CD00B4B1B6818469D
:1021300000F04CF903461B789BB219460748FFF79D
:10214000F3FC02E0064B00221A7040F226610348BD
:10215000FFF764FD00BF80BDFC2100200038014076
:10216000F821002080B500AF114B1B68184600F025
:1021700019F90346002B0CBF01230023DBB2002B0F
:102180000CD00B4B1B68184600F020F903461B7857
:102190009BB219460748FFF7C7FC02E0064B002236
:1021A0001A7040F226610348FFF738FD00BF80BD7A
:1021B0000022002000440040F921002080B500AF3B
:1021C000114B1B68184600F0EDF80346002B0CBFBE
:1021D00001230023DBB2002B0CD00B4B1B681846ED
:1021E00000F0F4F803461B789BB219460748FFF746
:1021F0009BFC02E0064B00221A7040F22661034865
:10220000FFF70CFD00BF80BD042200200048004005
:10221000FA21002090B583B000AF78607B68194A3E
:1022200093420BD1184B1C681648FFF78EFC0346EF
:10223000DBB21946204600F0FBF81EE07B68134A2B
:1022400093420BD1124B1C681048FFF77EFC0346EB
:10225000DBB21946204600F0EBF80EE07B680D4A31
:1022600093420AD10C4B1C680A48FFF76EFC0346E8
:10227000DBB21946204600F0DBF800BF0C37BD4644
:1022800090BD00BF003801400822002000440040FB
:102290000C220020004800401022002080B582B0AF
:1022A00000AF78600B46FB707B682C4A934218D1D4
:1022B0002B4B1B7883F00103DBB2002B09D0FB789A
:1022C0009BB219462548FFF72FFC254B01221A70B7
:1022D00040E0244B1B68FA781146184600F0A8F835
:1022E00038E07B68204A934218D1204B1B7883F05A
:1022F0000103DBB2002B09D0FB789BB219461A48C8
:10230000FFF712FC194B01221A7023E0184B1B68CF
:10231000FA781146184600F08BF81BE07B68154AE6
:10232000934217D1144B1B7883F00103DBB2002BCF
:1023300009D0FB789BB219460E48FFF7F5FB0E4B10
:1023400001221A7006E00D4B1B68FA7811461846F8
:1023500000F06EF800BF0837BD4680BD0038014070
:10236000F8210020FC21002000440040F921002039
:102370000022002000480040FA2100200422002012
:1023800080B483B000AF78607B680022C3F804217A
:102390007B680022C3F808217B6818460C37BD46CD
:1023A00080BC704780B483B000AF78607B68D3F89E
:1023B00004217B68D3F808319A4201D1012300E05F
:1023C000002318460C37BD4680BC704780B485B0EA
:1023D00000AF78607B68D3F804217B68D3F80831BC
:1023E0009A4205D17B68D3F804317A68134417E028
:1023F0007B68D3F80431FB607B68D3F80431591C47
:102400000A4B83FB0123DA11CB17D21A13461B02A6
:102410001344CA1A7B68C3F804217A68FB68134422
:1024200018461437BD4680BC704700BF817F807F4F
:1024300080B485B000AF78600B46FB707B68D3F842
:1024400008315A1C114B83FB0213D911D317C91A37
:102450000B461B020B44D31AFB607B68D3F80421A4
:10246000FB689A4201D101230AE07B68D3F8083166
:102470007A68F978D1547B68FA68C3F80821002398
:1024800018461437BD4680BC704700BF817F807FEF
:1024900081F0004102E000BF83F0004330B54FEA15
:1024A00041044FEA430594EA050F08BF90EA020F82
:1024B0001FBF54EA000C55EA020C7FEA645C7FEA15
:1024C000655C00F0E2804FEA5454D4EB5555B8BF38
:1024D0006D420CDD2C4480EA020281EA030382EAA9
:1024E000000083EA010180EA020281EA0303362D3B
:1024F00088BF30BD11F0004F4FEA01314FF4801C0E
:102500004CEA113102D0404261EB410113F0004F1F
:102510004FEA03334CEA133302D0524263EB4303D6
:1025200094EA050F00F0A780A4F10104D5F1200E74
:102530000DDB02FA0EFC22FA05F2801841F10001CF
:1025400003FA0EF2801843FA05F359410EE0A5F1A3
:1025500020050EF1200E012A03FA0EFC28BF4CF0D4
:10256000020C43FA05F3C01851EBE37101F000458A
:1025700007D54FF0000EDCF1000C7EEB00006EEB97
:102580000101B1F5801F1BD3B1F5001F0CD3490821
:102590005FEA30004FEA3C0C04F101044FEA445278
:1025A00012F5800F80F09A80BCF1004F08BF5FEAFF
:1025B000500C50F1000041EB045141EA050130BDDF
:1025C0005FEA4C0C404141EB010111F4801FA4F182
:1025D0000104E9D191F0000F04BF01460020B1FAD7
:1025E00081F308BF2033A3F10B03B3F120020CDA0F
:1025F0000C3208DD02F1140CC2F10C0201FA0CF0ED
:1026000021FA02F10CE002F11402D8BFC2F1200C51
:1026100001FA02F120FA0CFCDCBF41EA0C01904007
:10262000E41AA2BF01EB0451294330BD6FEA040450
:102630001F3C1CDA0C340EDC04F11404C4F120023B
:1026400020FA04F001FA02F340EA030021FA04F34D
:1026500045EA030130BDC4F10C04C4F1200220FAA4
:1026600002F001FA04F340EA0300294630BD21FAE2
:1026700004F0294630BD94F0000F83F4801306BFA8
:1026800081F480110134013D4EE77FEA645C18BF9C
:102690007FEA655C29D094EA050F08BF90EA020F33
:1026A00005D054EA000C04BF1946104630BD91EA2B
:1026B000030F1EBF0021002030BD5FEA545C05D12E
:1026C0004000494128BF41F0004130BD14F580046D
:1026D0003CBF01F5801130BD01F0004545F0FE41E1
:1026E00041F470014FF0000030BD7FEA645C1ABF16
:1026F000194610467FEA655C1CBF0B46024650EA4D
:10270000013406BF52EA033591EA030F41F4002178
:1027100030BD00BF90F0000F04BF0021704730B5FE
:102720004FF4806404F132044FF000054FF00001D3
:1027300050E700BF90F0000F04BF0021704730B594
:102740004FF4806404F1320410F0004548BF404269
:102750004FF000013EE700BF42004FEAE2014FEABE
:1027600031014FEA02701FBF12F07F4393F07F4F99
:1027700081F06051704792F0000F14BF93F07F4FCB
:10278000704730B54FF4607401F0004521F000410E
:1027900020E700BF50EA010208BF704730B54FF094
:1027A00000050AE050EA010208BF704730B511F099
:1027B000004502D5404261EB41014FF4806404F1D1
:1027C00032045FEA915C3FF4DCAE4FF003025FEA53
:1027D000DC0C18BF03325FEADC0C18BF033202EBDB
:1027E000DC02C2F1200300FA03FC20FA02F001FA35
:1027F00003FE40EA0E0021FA02F11444C1E600BFD4
:1028000070B54FF0FF0C4CF4E06C1CEA11541DBF86
:102810001CEA135594EA0C0F95EA0C0F00F0DEF851
:102820002C4481EA030621EA4C5123EA4C5350EA36
:10283000013518BF52EA033541F4801143F4801387
:1028400038D0A0FB02CE4FF00005E1FB02E506F018
:102850000042E0FB03E54FF00006E1FB03569CF06D
:10286000000F18BF4EF0010EA4F1FF04B6F5007F73
:1028700064F5407404D25FEA4E0E6D4146EB0606E5
:1028800042EAC62141EA55514FEAC52040EA5E506E
:102890004FEACE2EB4F1FD0C88BFBCF5E06F1ED818
:1028A000BEF1004F08BF5FEA500E50F1000041EB4F
:1028B000045170BD06F0004646EA010140EA0200FC
:1028C00081EA0301B4EB5C04C2BFD4EB0C0541EA1E
:1028D000045170BD41F480114FF0000E013C00F333
:1028E000AB8014F1360FDEBF002001F0004170BD57
:1028F000C4F10004203C35DA0C341BDC04F1140470
:10290000C4F1200500FA05F320FA04F001FA05F2FB
:1029100040EA020001F0004221F0004110EBD370C8
:1029200021FA04F642EB06015EEA430E08BF20EAF4
:10293000D37070BDC4F10C04C4F1200500FA04F397
:1029400020FA05F001FA04F240EA020001F0004129
:1029500010EBD37041F100015EEA430E08BF20EA9C
:10296000D37070BDC4F1200500FA05F24EEA020EE4
:1029700020FA04F301FA05F243EA020321FA04F013
:1029800001F0004121FA04F220EA020000EBD370CA
:102990005EEA430E08BF20EAD37070BD94F0000FCA
:1029A0000FD101F00046400041EB010111F4801FFE
:1029B00008BF013CF7D041EA060195F0000F18BFAF
:1029C000704703F00046520043EB030313F4801FEB
:1029D00008BF013DF7D043EA0603704794EA0C0FA5
:1029E0000CEA135518BF95EA0C0F0CD050EA4106BB
:1029F00018BF52EA4306D1D181EA030101F0004138
:102A00004FF0000070BD50EA410606BF104619465F
:102A100052EA430619D094EA0C0F02D150EA01366B
:102A200013D195EA0C0F05D152EA03361CBF1046AC
:102A300019460AD181EA030101F0004141F0FE414B
:102A400041F470014FF0000070BD41F0FE4141F4CF
:102A5000780170BD70B54FF0FF0C4CF4E06C1CEACF
:102A600011541DBF1CEA135594EA0C0F95EA0C0F84
:102A700000F0A7F8A4EB050481EA030E52EA03353F
:102A80004FEA013100F088804FEA03334FF0805560
:102A900045EA131343EA12634FEA022245EA11158D
:102AA00045EA10654FEA00260EF000419D4208BF3E
:102AB000964244F1FD0404F5407402D25B084FEAEB
:102AC0003202B61A65EB03055B084FEA32024FF497
:102AD00080104FF4002CB6EB020E75EB030E22BFF4
:102AE000B61A754640EA0C005B084FEA3202B6EBB4
:102AF000020E75EB030E22BFB61A754640EA5C0063
:102B00005B084FEA3202B6EB020E75EB030E22BFF2
:102B1000B61A754640EA9C005B084FEA3202B6EBF3
:102B2000020E75EB030E22BFB61A754640EADC00B2
:102B300055EA060E18D04FEA051545EA16754FEA14
:102B400006164FEAC30343EA52734FEAC2025FEA32
:102B50001C1CC0D111F4801F0BD141EA00014FF0C1
:102B600000004FF0004CB6E711F4801F04BF014392
:102B70000020B4F1FD0C88BFBCF5E06F3FF6AFAEAE
:102B8000B5EB030C04BFB6EB020C5FEA500C50F13E
:102B9000000041EB045170BD0EF0004E4EEA1131C1
:102BA00014EB5C04C2BFD4EB0C0541EA045170BDC8
:102BB00041F480114FF0000E013C90E645EA060E0C
:102BC0008DE60CEA135594EA0C0F08BF95EA0C0F3A
:102BD0003FF43BAF94EA0C0F0AD150EA01347FF482
:102BE00034AF95EA0C0F7FF425AF104619462CE759
:102BF00095EA0C0F06D152EA03353FF4FDAE1046BC
:102C0000194622E750EA410618BF52EA43067FF40C
:102C1000C5AE50EA41047FF40DAF52EA43057FF49C
:102C2000EBAE12E780F0004002E000BF81F000410F
:102C300042001FBF5FEA410392EA030F7FEA226C62
:102C40007FEA236C6AD04FEA1262D2EB1363C1BFF2
:102C5000D218414048404140B8BF5B42192B88BF61
:102C6000704710F0004F40F4000020F07F4018BF84
:102C7000404211F0004F41F4000121F07F4118BFA4
:102C8000494292EA030F3FD0A2F1010241FA03FC4C
:102C900010EB0C00C3F1200301FA03F100F0004334
:102CA00002D5494260EB4000B0F5000F13D3B0F1FC
:102CB000807F06D340084FEA310102F10102FE2A6B
:102CC00051D2B1F1004F40EBC25008BF20F00100DB
:102CD00040EA03007047490040EB000010F4000F89
:102CE000A2F10102EDD1B0FA80FCACF1080CB2EB1C
:102CF0000C0200FA0CF0AABF00EBC250524218437B
:102D0000BCBFD0401843704792F0000F81F400011F
:102D100006BF80F400000132013BB5E74FEA4103F2
:102D20007FEA226C18BF7FEA236C21D092EA030F5E
:102D300004D092F0000F08BF0846704790EA010FD8
:102D40001CBF0020704712F07F4F04D1400028BF05
:102D500040F00040704712F100723CBF00F50000E7
:102D6000704700F0004343F0FE4040F4000070471D
:102D70007FEA226216BF08467FEA236301464202C9
:102D800006BF5FEA412390EA010F40F480007047DC
:102D90004FF0000304E000BF10F0004348BF404282
:102DA0005FEA000C08BF704743F0964301464FF0BE
:102DB00000001CE050EA010208BF70474FF000031A
:102DC0000AE000BF50EA010208BF704711F000435B
:102DD00002D5404261EB41015FEA010C02BF84462B
:102DE0000146002043F0B64308BFA3F18053A3F58A
:102DF0000003BCFA8CF2083AA3EBC25310DB01FAD1
:102E000002FC634400FA02FCC2F12002BCF1004F54
:102E100020FA02F243EB020008BF20F001007047E5
:102E200002F1200201FA02FCC2F1200250EA4C0039
:102E300021FA02F243EB020008BF20EADC7070477F
:102E40004FF0FF0C1CEAD0521EBF1CEAD15392EA8D
:102E50000C0F93EA0C0F6FD01A4480EA010C400269
:102E600018BF5FEA41211ED04FF0006343EA5010C3
:102E700043EA5111A0FB01310CF00040B1F5000F05
:102E80003EBF490041EAD3715B0040EA010062F1B4
:102E90007F02FD2A1DD8B3F1004F40EBC25008BF9E
:102EA00020F00100704790F0000F0CF0004C08BFBC
:102EB00049024CEA502040EA51207F3AC2BFD2F189
:102EC000FF0340EAC250704740F400004FF0000397
:102ED000013A5DDC12F1190FDCBF00F000407047D1
:102EE000C2F10002410021FA02F1C2F1200200FA0F
:102EF00002FC5FEA310040F1000053EA4C0308BFD6
:102F000020EADC70704792F0000F00F0004C02BF26
:102F1000400010F4000F013AF9D040EA0C0093F0A1
:102F2000000F01F0004C02BF490011F4000F013BFB
:102F3000F9D041EA0C018FE70CEAD15392EA0C0F69
:102F400018BF93EA0C0F0AD030F0004C18BF31F0D4
:102F5000004CD8D180EA010000F00040704790F0AA
:102F6000000F17BF90F0004F084691F0000F91F04E
:102F7000004F14D092EA0C0F01D142020FD193EA14
:102F80000C0F03D14B0218BF084608D180EA01009C
:102F900000F0004040F0FE4040F40000704740F078
:102FA000FE4040F4400070474FF0FF0C1CEAD05246
:102FB0001EBF1CEAD15392EA0C0F93EA0C0F69D0A2
:102FC000A2EB030280EA010C49024FEA402037D00D
:102FD0004FF0805343EA111143EA10130CF0004004
:102FE0008B4238BF5B0042F17D024FF4000C8B42F4
:102FF00024BF5B1A40EA0C00B3EB510F24BFA3EBD4
:10300000510340EA5C00B3EB910F24BFA3EB9103A3
:1030100040EA9C00B3EBD10F24BFA3EBD10340EAFD
:10302000DC001B0118BF5FEA1C1CE0D1FD2A3FF643
:1030300050AF8B4240EBC25008BF20F001007047F8
:103040000CF0004C4CEA50207F32C2BFD2F1FF039B
:1030500040EAC250704740F400004FF00003013ACC
:1030600037E792F0000F00F0004C02BF400010F470
:10307000000F013AF9D040EA0C0093F0000F01F084
:10308000004C02BF490011F4000F013BF9D041EAA6
:103090000C0195E70CEAD15392EA0C0F08D14202D9
:1030A0007FF47DAF93EA0C0F7FF470AF084676E7AC
:1030B00093EA0C0F04D14B023FF44CAF08466EE785
:1030C00030F0004C18BF31F0004CCAD130F0004253
:1030D0007FF45CAF31F000437FF43CAF5FE700BFAB
:1030E0004FF0FF3C06E000BF4FF0010C02E000BFD4
:1030F0004FF0010C4DF804CD4FEA40024FEA410376
:103100007FEA226C18BF7FEA236C11D001B052EA2B
:10311000530C18BF90EA010F58BFB2EB030088BFF1
:10312000C81738BF6FEAE17018BF40F00100704760
:103130007FEA226C02D15FEA402C05D17FEA236C42
:10314000E4D15FEA412CE1D05DF8040B704700BF89
:10315000844608466146FFE70FB5FFF7C9FF002820
:1031600048BF10F1000F0FBD4DF808EDFFF7F4FF59
:103170000CBF012000205DF808FB00BF4DF808EDF2
:10318000FFF7EAFF34BF012000205DF808FB00BF15
:103190004DF808EDFFF7E0FF94BF012000205DF837
:1031A00008FB00BF4DF808EDFFF7D2FF94BF0120E8
:1031B00000205DF808FB00BF4DF808EDFFF7C8FFE1
:1031C00034BF012000205DF808FB00BF42000ED292
:1031D000B2F1FE4F0BD34FF09E03B3EB126209D452
:1031E0004FEA002343F0004323FA02F070474FF008
:1031F0000000704712F1610F01D1420202D14FF07D
:10320000FF3070474FF00000704700BF03685A005E
:103210004CBF43F0004323F000431844704700BF05
:1032200061B32DE9F84F01F1FF3A90460646D146C9
:10323000002707EB090404EBD4746410E50071194E
:103240000846FFF7E3FFA245834605F10800304436
:1032500009D0FFF7DBFFC34500F1FF3005D840453B
:1032600009D2671CE5E7C34505D9A74202D004F19E
:10327000FF39DEE700210846BDE8F88F08467047B1
:10328000012807D0022807D0044B00280CBF18469D
:103290000020704702487047024870479139000883
:1032A000953900089939000830B5254B83B004469C
:1032B0008D1E73B301A92846AFF3008018B301999E
:1032C0002A46FFF7ADFF0146E8B1FFF79FFF4B68C5
:1032D000A064012B11D0002B22DB081DFFF796FF05
:1032E0000023E06423650368002B1EDBFFF78EFFDD
:1032F00000232061184603B030BD05230022184684
:10330000226103B030BD092300221846226103B0B8
:1033100030BD0C4B0C491846C91AC9100191CFE7B2
:103320000123081DE0642365DDE7C3F30360FFF7B5
:10333000A7FF0028206114BF00230923DAE700BF9C
:103340000000000050850008C8860008036810B51A
:10335000DA07044606D49B0700F1480009D500F0BF
:1033600057FC2368590709D51A070ED5DB0613D574
:1033700010BD00F045FC23685907F5D404F1D000D6
:1033800000F04EFC23681A07F0D404F5A87000F092
:103390004FFC2368DB06EBD404F5E870BDE8104071
:1033A00000F08ABC036803B103441846704700BFAD
:1033B00009207047704700BF70B504460D4608E00D
:1033C0002A6C2369626121462A4601209847082811
:1033D00008D1296C2046FFF767FF06460028EFD08A
:1033E000FEF756FC0728FBD13046296CFFF7E2FFB9
:1033F000281D00F0F9FB00BF2DE9F0470546002726
:10340000ADF5727D03AC0E1D92460FCE0FC40FCEEC
:103410000FC40FCE0FC496E80F00D5F80C80D5F876
:10342000189084E80F0002AC2846216C2760FFF753
:103430003BFFBAF1000F074614BF0A2609267FB1E9
:10344000A36B46F010018DE810022A466364012048
:103450002B46C04778BB38460DF5727DBDE8F08736
:10346000236C4FF4F0726B6121467AA800F054FE91
:103470002B697AAA294630469847889B82468DE870
:103480001002314663642A462B460120C04790B99A
:103490004FF4F0727AA9204600F03EFEBAF1080F10
:1034A00006D1216C2846FFF7FFFE09260746C6E72E
:1034B000BAF1070F05D0092738460DF5727DBDE832
:1034C000F0873846216CFFF775FF03A800F08CFBEE
:1034D000406C7047F0B54FF0FF3ECB6BF9B00B641A
:1034E0000E1D01AD0F4604460FCE0FC50FCE0FC502
:1034F0000FCE0FC596E80F0085E80F00CDF800E06D
:1035000006E023696A46214698470828054608D1FF
:1035100010992046FFF7C8FE0028F2D0092079B0A4
:10352000F0BD6846FFF712FF062DF7D13946204659
:10353000FFF742FF30B4DD6BC160826119461D6444
:10354000002230BC58E700BF70B54369C6680B6401
:1035500026B10122FFF750FFFEF79AFB03690A46E6
:1035600004460D46014602209847072807D0082840
:1035700003D129462046FFF71FFFFEF789FB30469F
:10358000296CFFF717FF281D00F02EFBC2682AB137
:1035900010B4CC6B00220C6410BC2DE79AE700BF7E
:1035A000704700BF836813B1014601201847704778
:1035B00000B5042907D8DFE801F00309060909006E
:1035C0000BB90F2A05D902205DF804FB01205DF834
:1035D00004FB00EB820252681846019B1A605DF8FA
:1035E00004FB00BF002310B584B003AC0A4600946E
:1035F0001946FFF7DDFF039804B010BD00B504299C
:1036000007D8DFE801F00309060909000BB90F2A02
:1036100005D902205DF804FB01205DF804FB019947
:1036200000EB82020968184651605DF804FB00BF98
:10363000002310B584B004AC44F8042D00940A466D
:103640001946FFF7DBFF04B010BD00BFF0B54FF027
:10365000FF3ED36BADF50F7D1364151D17AC074608
:103660000E460FCD0FC40FCD0FC40FCD0FC495E87C
:103670000F0084E80F00CDF858E012E00C2116A8E6
:103680006A46FFF7D5FF314616A8B84778B9049BBC
:1036900016AA6946082098470528044608D0092834
:1036A00005D026996846FFF7FFFD0028E6D00924DB
:1036B00016A8FFF74BFE20460DF50F7DF0BD00BFAD
:1036C0002DE9F04FCC6C914622688BB004340D4646
:1036D0000792089400F0030B1E46002B60D10323D1
:1036E000120207928DF825608DF824302B6DBBF106
:1036F000020F08BFAC6B13F0010340D1019300F03F
:1037000008030393D4F80080B8F1000F39D0022EDB
:1037100043D0B4F8008067880434AB6C27F0010A0A
:103720000F2148469A44FFF75DFF824533D828F0C1
:1037300001039A4450452CBF002001207F0007F070
:10374000020708F0010847EA0807012F3ED035D3E9
:10375000022F1CD1236823F000420292BBF1000F1C
:1037600076D128B1039900297ED0002A00F0A680E6
:10377000002B77DB029B013304EB8304C2E70023B9
:103780000193022E3EDDFFF713FE002840D00920F2
:103790000BB0BDE8F08F0020D0E767680834BCE7C5
:1037A000022BA3DC0221130C8DF825301204DBB2AE
:1037B00004EB830407928DF8241097E7BBF1000F08
:1037C00002D0002840F0BD8004349BE7BBF1000F1D
:1037D00025D1A8B194E80C00991C4FEAD272D6D03A
:1037E00005F158010133069100F0A380201DFFF779
:1037F000D9FD06AB01462846AFF30080002877D1FB
:1038000008347FE707A9484600F0F0FA0028BED147
:10381000019B002B5CD108200BB0BDE8F08F0D217F
:1038200048462F6AFFF7DEFE8742E9D1AB6A9C4229
:10383000E6D12046FFF7EAFC0F2102464846FFF793
:10384000F7FE48462A460021FFF7F2FE07209FE7D1
:103850000D2148462F6AFFF7C5FE874258D02368DE
:10386000002B87DA043485E7029B3BB305F158034C
:10387000271DCDF810B0DDF80C80A346DDF808A0B8
:103880001C46059602E0B245B04616D0384606946E
:10389000FFF788FD06AB014600222846AFF3008003
:1038A00008F1010604370028EDD0029B5C46434531
:1038B000DDF810B0059ED2D100E05C4648460D21EF
:1038C000FFF790FE069B2862AC626B6206205FE702
:1038D0000F214846FFF786FE0E2102464846FFF7B5
:1038E000A7FE4846294A0F21FFF7A2FE07204FE70F
:1038F00007460D214846FFF775FE022F28621DD1AD
:103900002B46069A43F82C2F6B62AC6206203FE7E9
:10391000AB6A9C42A3D1042200270299A318A96292
:10392000EF622A636B632368BB421DDB01230193B3
:1039300020E748460D21FFF755FE2862069B6B6283
:10394000E3E72046FFF762FC04340646AC632846F2
:10395000AFF3008000283FF41AAF484632460F21EB
:10396000FFF766FE072013E70846013004EB8000EE
:10397000FFF74CFC0F2102464846FFF759FE484628
:103980002A463946FFF754FE072001E700000000F1
:10399000002395E6012393E6022391E6F0B5044661
:1039A000C5B004290DD8DFE801F055030C310F0034
:1039B000012B4FEA124695B264D17219102A40F2D7
:1039C0009D80022045B0F0BD002BFAD1102AF8D816
:1039D0002368D80600F1C88022AE30460192012546
:1039E00000F074F90023A06B019A05FA03F111426B
:1039F00003D00168043046F823100133042BF4D1BE
:103A0000A063304600F058F90020DBE7032BD8D143
:103A1000150C97B2EB19102BD3D823681E0700F1B1
:103A2000B78022AE304600F025F9ED00A06B5FB103
:103A3000043D0346711900EBC70053F8042B834281
:103A400041F8042FF9D11846A063304600F0F0F891
:103A50000020B7E7002BB4D10127A56B96B2201D3B
:103A600007FA03F1314203F1010302D0296804355A
:103A70000160102B00F10400F2D112F400503BD190
:103A8000A5639FE7052B9CD17719202F99D80F2E7E
:103A900066D92F46002D3AD12A460027002AA06B6E
:103AA00072DD00EBC202014644A800EBC6008C3870
:103AB00051F8045B914240F8045FF9D1084697B190
:103AC000102E324638BF102244A901EBC202A2F5E3
:103AD000C4727900043A00EB810150F8045B88421B
:103AE00042F8045FF9D1012B48D00F2EA16333D9DE
:103AF00017B102A800F094F8002063E70F2E3FF6FC
:103B000060AF00272268D10717D4002F60D0226849
:103B1000510745D4012B4DD00F2E06D822A8019372
:103B200000F07AF8019B002FB6D002A8019300F0B4
:103B30007BF8019BC6F11002B0E722F00101052BD2
:103B40002160019320463BD022F0030240F8482B2D
:103B500000F05AF8019BD8E722A800F059F8C7E70F
:103B6000102FCED9103FCDE723F01003236004F5CA
:103B7000E870019200F0AAF8019A2DE70431A163E0
:103B800022A800F03DF8B7E7002F99D10146AAE737
:103B900023F00803236004F5A87000F06BF840E7F9
:103BA000204622F0040240F8D02B019300F03CF8AC
:103BB000019BAFE722A8019300F026F8019BB9E72B
:103BC00041F0020140F8481B00F026F8019B9CE7F9
:103BD000012B03D00F2E3FF65FAF9FE722A8019382
:103BE00000F012F8019B57E700F1340191E838002A
:103BF0009C46A6464CF8045D90E8FF0FE54600BDE4
:103C000090EC210B704700BF80EC210B704700BF88
:103C100090EC200B704700BF80EC200B704700BF7A
:103C2000D0EC200B704700BFC0EC200B704700BFEA
:103C3000F0EC0201F0EC0211F0EC0221F0EC0231A8
:103C4000F0EC0241F0EC0251F0EC0261F0EC027198
:103C5000F0EC0281F0EC0291F0EC02A1F0EC02B188
:103C6000F0EC02C1F0EC02D1F0EC02E1F0EC02F178
:103C7000704700BFE0EC0201E0EC0211E0EC022131
:103C8000E0EC0231E0EC0241E0EC0251E0EC0261D8
:103C9000E0EC0271E0EC0281E0EC0291E0EC02A1C8
:103CA000E0EC02B1E0EC02C1E0EC02D1E0EC02E1B8
:103CB000E0EC02F1704700BFB0FC0181B0FC019163
:103CC000B0FC01A1B0FC01B1704700BFA0FC0181B4
:103CD000A0FC0191A0FC01A1A0FC01B1704700BFB4
:103CE000EC4600B52DE900502DE9FF1F4FF0000311
:103CF0002DE90C0001A9FFF7EDFBDDF840E012B063
:103D0000704700BFEC4600B52DE900502DE9FF1FBC
:103D10004FF000032DE90C0001A9FFF715FCDDF8B9
:103D200040E012B0704700BFEC4600B52DE90050EE
:103D30002DE9FF1F4FF000032DE90C0001A9FFF74B
:103D400025FCDDF840E012B0704700BFEC4600B53E
:103D50002DE900502DE9FF1F4FF000032DE90C0065
:103D600001ABFFF7E7FBDDF840E012B0704700BFA2
:103D7000EC4600B52DE900502DE9FF1F4FF0000380
:103D80002DE90C0001AAFFF761FCDDF840E012B05C
:103D9000704700BF027A1AB9437A43B9B02070471E
:103DA0000368013A02721A020260180E704703217A
:103DB0004268013B10B443721368141D01721A0269
:103DC0004460026010BC180E704700BF002300B5AD
:103DD00085B003AA009219460C22FFF7E9FB03986D
:103DE00005B05DF804FB00BFF0E700BF2DE9F0432C
:103DF00006460F464FF0000885B03846FFF7CAFF69
:103E0000B028044623D0050627D400230DF10C0961
:103E1000194685000D22CDF800903046FFF7C8FB0B
:103E2000EDB2039B600605F104054CBF5D1BED1868
:103E300000230D221946CDF8009030460395FFF778
:103E4000DDFB3846FFF7A6FFB0280446DBD1B8F10A
:103E5000000F00F0948000201CE000F0F003802BA5
:103E60005CD0902B19D0A02B2CD0B02B3ED0C02BE7
:103E70006BD000F0F803D02B0BD100F00702013219
:103E800042F40022052301213046FFF787FD002878
:103E9000B3D0092005B0BDE8F08300F00D030D2B71
:103EA000F7D0002303AD00F00F021946009530460D
:103EB000FFF77EFB0023009519460D223046FFF7E1
:103EC0009DFB9AE7C3434FF47F6203F007031A4157
:103ED0000023010702F47F6248BF42F48042194682
:103EE0003046FFF75BFD0028D3D186E7B12857D0D5
:103EF000B22868D0B32800F0958000F0FC03B42B02
:103F0000C7D0012300F007021A4442F400221946E8
:103F10003046FFF743FD0028BBD16EE73846FFF778
:103F200039FF24020443B4F5004FB2D0002324012A
:103F3000A2B219463046FFF731FD0028A9D114F48A
:103F4000004F18BF4FF0010857E7C6287DD0C7289B
:103F500000F0868000F0F803C02B00F09480C828A1
:103F600000F09F80C92894D13846FFF713FF020361
:103F700000F00F0002F470220130024382E703AC2C
:103F800043460E22414600943046FFF711FB009451
:103F9000304643460F224146FFF730FB404679E763
:103FA0003846FFF7F7FE00283FF473AF10F0F00338
:103FB0007FF46FAF024619463046FFF7EFFC00284A
:103FC0007FF467AF19E700230DF10C090D221946A4
:103FD000CDF800903046FFF7EBFA3846FFF7DAFEEF
:103FE00002064FF002040CD5039B00F07F00A040B6
:103FF000034438460393FFF7CDFE030604F107049C
:10400000F2D40023039900F07F02A24001F5017170
:104010008C18CDF8009019460D2230460394FFF716
:10402000EDFAEAE63846FFF7B5FE0123010300F09A
:104030000F0001F47021C2180A4330461946FFF7F9
:10404000ADFC00287FF425AFD7E63846FFF7A2FE87
:10405000010300F00F00032301F47021421CEBE781
:104060003846FFF797FE00283FF413AF10F0F00337
:104070007FF40FAF024604213046FFF78FFC002883
:104080007FF407AFB9E6032300F00F02013242F4D8
:10409000202219463046FFF781FC00287FF4F9AE54
:1040A000ABE63846FFF776FE00F0F00200F00F03B3
:1040B0001032013343EA0232E4E600BF30B5032494
:1040C0000D46C36C85B05A688DF80C40DC7912023D
:1040D000083301A9284601928DF80D400293FFF79D
:1040E00085FE05B030BD00BF08B5FFF77DFE806CD2
:1040F00008BD00BF08B5FFF777FEC06CC37900EBC1
:104100008300083008BD00BF08B5FDF7C1FD00BF42
:1041100008B5FFF7F9FF00BF844641EA000313F03A
:10412000030349D1403A23D30B6803604B684360D3
:104130008B688360CB68C3600B6903614B69436123
:104140008B698361CB69C3610B6A03624B6A43620B
:104150008B6A8362CB6AC3620B6B03634B6B4363F3
:104160008B6B8363CB6BC36340304031403ADBD20F
:1041700030320BD30B6803604B6843608B688360FD
:10418000CB68C36010301031103AF3D20C3205D333
:1041900051F8043B40F8043B043AF9D2043208D009
:1041A000D2071CBF11F8013B00F8013B01D30B887B
:1041B00003806046704700BF082A13D38B07B1D035
:1041C00010F00303AED0C3F10403D21ADB071CBF07
:1041D00011F8013B00F8013BA4D331F8023B20F871
:1041E000023B9FE7043AD9D3013A11F8013B00F8AA
:1041F000013BF9D20B7803704B7843708B78837056
:104200006046704770B4860746D0541E002A41D0DD
:10421000CAB2034602E014F1FF343BD303F8012B8A
:104220009D07F8D1032C2ED9CDB245EA05250F2CD8
:1042300045EA054519D9264603F11002103E0F2E16
:1042400042F8105C42F80C5C42F8085C42F8045CEE
:1042500002F11002F2D8A4F1100222F00F0204F0D1
:104260000F041032032C13440DD91E462246043A83
:10427000032A46F8045BFAD8221F22F00302043214
:10428000134404F003042CB1C9B21C4403F8011B0D
:104290009C42FBD170BC704714460346C2E700BF86
:1042A000F0B50D466FF000444FF402774FF6FF76FD
:1042B0009BB0694600950495ADF80C700294059486
:1042C000ADF80E6000F040F80022009B1A701BB0A1
:1042D000F0BD00BF10B4044C13460A4601462068E6
:1042E00010BCFFF7DDBF00BF14000020024B13B16C
:1042F000024800F005B87047000000000D430008B8
:10430000002301461A46184601F09EBA38B50A4CF9
:104310000A4D641BA4100AD004F18043013B05EB55
:104320008305013C55F804399847002CF9D1BDE8C4
:10433000384003F055BF00BFD4090020D009002049
:10434000704700BF704700BF2DE9F04FC3B00C4667
:104350000B9192460F930C9002F090FA0368184666
:104360001A9303F09BF8A3891990190603D52369C2
:10437000002B01F0358000230DF1C809C8461593C4
:104380001393149318931B930993169317932793DE
:104390002693CDF894909AF800305446EBB1252B33
:1043A00002D11AE0252B03D014F8013F002BF9D1DC
:1043B000A4EB0A058DB1269B279A01332A44072BCB
:1043C000C8F800A0C8F804502792269300F38A800A
:1043D00008F10808099B2B4409932378002B00F06F
:1043E000898000234FF0FF301A468DF87730194648
:1043F0000D939B46637804F1010A0A900AF1010AC1
:10440000A3F12000582800F2B783DFE810F04C0336
:10441000B503B5035403B503B503B503B503B5033D
:10442000B50359005903B50366001402B5032F0202
:10443000A503A503A503A503A503A503A503A5033C
:10444000A503B503B503B503B503B503B503B503BC
:10445000B503B503B5038B02D302B503D302B5038D
:10446000B503B503B5031B03B503B5032003B503BB
:10447000B503B503B503B5033402B503B5034B0269
:10448000B503B503B503B503B503B503B503B5036C
:10449000B503B50376029E03D302D302D3026303AE
:1044A0009E03B503B5036803B5037503DD018C03F3
:1044B0005E03B503F201B5038700B503B50332030C
:1044C0000F9C236818460D932346002803F104032C
:1044D0000F9304DA0D9B5B420D934BF0040B9AF89B
:1044E00000308BE725AA0B990C9803F005F840B92A
:1044F000C8466FE7279B23B10C9825AA0B9902F0B9
:10450000FBFF0B9B9B8913F0400F099B18BF4FF0DB
:10451000FF330993099843B0BDE8F08F1BF0200FDB
:10452000119340F0AF810F9A1BF0100F134640F02B
:104530009A851BF0400F00F0968500250123148812
:1045400004320F92002217468DF877200A994A1CF0
:1045500000F010822BF08002079254EA050240F02E
:104560000F82002940F03184002B40F039851BF088
:1045700001030E9300F06286302342AE06F8413DFF
:104580000A9B0E9A9342B8BF1346089300231293D6
:1045900017B1089B01330893079B13F00203109394
:1045A00002D0089B02330893079B13F0840540F068
:1045B00010830D9B089AA3EB020BBBF1000F40F395
:1045C0000883BBF1100F40F3B287279C4346214676
:1045D000A8461027269A0C9C0B9D06E0ABF1100B09
:1045E000BBF1100F03F1080318DD0132AB481031A5
:1045F000072A2791269283E88100EFDD25AA294624
:10460000204602F079FF00287FF47BAFABF1100B5E
:10461000BBF1100F4B462799269AE6DC45460C461F
:10462000984601329D4B5C44072A2794269288E8DD
:10463000080800F3C3829DF8777008F1080887B175
:104640000121269B0C440B440DF17702072B279484
:104650002693C8F80410C8F8002000F3CD8308F1B1
:104660000808109B7BB10221269B0C4401331EAA33
:10467000072B27942693C8F80410C8F8002000F3ED
:10468000118408F10808802D00F004830A9B0E9A1B
:104690009F1A002F37DD102F40F37986804D424658
:1046A0002146B0464FF0100B2E46269B0C9C0B9DCE
:1046B00004E0103F102F02F1080215DD0133103124
:1046C000072B2791269382E84008F2DD25AA294688
:1046D000204602F011FF00287FF413AF103F102F87
:1046E0004A462799269BE9DC35460C4646469046C5
:1046F00001333C44072B2794269388E8A00000F35D
:10470000708308F10808079BDF0500F16482269B8F
:104710000E9901330C44072B2794C8F80060C8F8A1
:104720000410269300F3B38308F10808079B5B0786
:104730003BD50D9B089A9D1A002D36DD102D40F3B8
:1047400021871026269B0C9FDDF82CB004E0103D3D
:10475000102D08F1080816DD0133504A1034072BDC
:104760002794269388E84400F1DD25AA5946384667
:1047700002F0C2FE00287FF4C4AE103D102DC846E2
:10478000279C269BE8DC0133444A2C44072B2794C2
:10479000269388E8240008DD25AA0B990C9802F0DE
:1047A000ABFE00287FF4ADAE279C099B0D9A0899BB
:1047B0008A42ACBF9B185B180993002C40F0FB8227
:1047C0000023C8462693E6E511931BF0200340F032
:1047D00045811BF0100240F066841BF0400300F09E
:1047E00062840F9913460A4604320C8800250F9202
:1047F000A8E600250F9A119316688DF87750141DBE
:10480000002E00F0CD860A9A531C00F01B86294624
:10481000304602F0E3FA002800F00D87831B0A956A
:104820000E930F94CDF81CB023EAE373089312950E
:104830009DF87770ACE69AF800300AF101042A2B53
:1048400000F0C287A3F130000928A24600F21887C1
:1048500000231C461AF8013B04EB840400EB4404DB
:10486000A3F130000928F5D90A94C9E54BF0800B73
:104870009AF80030C2E54BF0100B1BF0200F11939B
:104880003FF451AE0F9C073424F0070303F10802F4
:10489000D3E900450F92012354E600BF408200088F
:1048A000508200081193002A40F0AD87BE4B1BF0E8
:1048B000200F189340F0E7800F9A1BF0100F13465B
:1048C00040F0D8831BF0400F00F0D4830025043360
:1048D00014880F931BF0010F00F0E38054EA0503E6
:1048E00000F0DF8030239DF844208DF878308DF87B
:1048F00079204BF0020B022324E6012211930023BE
:1049000011460F98089202681F468DF877300A9377
:104910001293031DCDF81CB00E918DF8A0200F93BB
:1049200028AE39E61193002A40F084874BF0100B33
:104930001BF0200F40F075840F9A1BF0100F1346E8
:1049400040F09D831BF0400F00F09983B2F90040C6
:104950000433E5170F9322462B46002A73F1000318
:10496000C0F298830A999DF877704A1C4FF00103B2
:104970007FF4F0AD54EA050200F02982CDF81CB0B6
:10498000012B00F00E83022B40F09C824E461898BB
:10499000230943EA0573290904F00F020D461C465A
:1049A000835C06F8013D54EA0503F1D1A9EB060347
:1049B0000E93E5E51193002A40F038870F9C1BF019
:1049C000080F04F1070400F0CF8424F0070303F17B
:1049D00008020F921A685B6815921493149B159D38
:1049E00023F00044284621464FF0FF326F4B03F07E
:1049F0002BFA002840F03484284621464FF0FF323D
:104A00006A4B03F003FA002840F02A8415A80DC869
:104A1000149903F0F1F9002840F0D4859DF87770DF
:104A200003231A4608930023614E19460A93614BEB
:104A30000E92119A2BF0800007901291472AD8BF4E
:104A40001E46A5E54BF0080B9AF80030D6E44BF073
:104A5000100B11931BF020033FF4BBAE0F9C0734E7
:104A600024F0070303F10802D3E900450F92002365
:104A700068E51193002A40F0C2864F4B1BF0200FCF
:104A800018933FF419AF0F9C1BF0010F04F10704BA
:104A900024F0070303F108020F92D3E900457FF4E5
:104AA0001DAF02234EE59AF8003000297FF4A6AC32
:104AB00001222021A2E44BF0010B9AF800309DE482
:104AC0009AF8003001222B2198E44BF0200B9AF841
:104AD000003093E44BF0400B9AF800308EE49AF8E3
:104AE00000306C2B03BF9AF801304BF0200B0AF119
:104AF000010A4BF0100B81E4002A40F07C861BF089
:104B0000200F40F052841BF0100F40F038841BF04F
:104B1000400F00F034840F9A136804320F92BDF8EE
:104B200024201A8037E4782330220F988DF87930CA
:104B30001193031D0F93204B046818934BF0020B45
:104B40008DF8782000250223FCE41193002A3FF41D
:104B5000EFAE8DF87710EBE600200446A3F13000AD
:104B60001AF8013B04EB840400EB4404A3F1300089
:104B70000928F5D90D9443E41193002A40F04A86A0
:104B8000119A002A3FF4B6AC002301211F46089178
:104B90008DF8A020CDF81CB08DF877300A931293D1
:104BA0000E9128AEF8E400BF0C820008FFFFEF7FF3
:104BB00000820008FC8100082082000825AA0B99C9
:104BC0000C9802F099FC00287FF49BACC8469DF835
:104BD0007770279C33E5119B652B40F39A8015A8CD
:104BE0000DC8149903F0FEF8002800F0938101210C
:104BF000269BB54A0B440C44072B27942693C8F8F0
:104C00000410C8F8002000F3C68308F108081F9BB1
:104C1000139A279C934203DB079BDD077FF586AD44
:104C2000269B199901331A9A0C44072BC8F80020C7
:104C3000C8F804102794269300F3C48308F10808E9
:104C4000139B5E1E002E7FF771AD102E40F375850D
:104C500022461027269B9D4DDDF830B00B9C05E0C9
:104C600008F10808103E102E40F32582013310325F
:104C7000072B2792269388E8A000F1DD25AA21467C
:104C8000584602F039FC00287FF43BACC846279A0E
:104C9000269BE7E70D9B089A9F1A002F7FF7F6AC3B
:104CA000102F40F3A884894D42462146B0464FF06C
:104CB000100B2E46269B0C9C0B9D04E0103F102FE2
:104CC00002F1080215DD01331031072B27912693DD
:104CD00082E84008F2DD25AA2946204602F00CFCB5
:104CE00000287FF40EAC103F102F4A462799269BD0
:104CF000E9DC35460C464646904601333C44072BDA
:104D00002794269388E8A00000F39E8208F1080803
:104D1000BCE4139B012B40F34F820123269F1C44CC
:104D20001F44072F2794C8F800602697C8F804305E
:104D300000F35F8208F10808199A01371A9B14449E
:104D4000072F27942697C8F80030C8F8042000F3EE
:104D50005C8208F1080815A80DC8149903F042F800
:104D6000139B002840F04181013B013701361C4470
:104D7000072FC8F8006026972794C8F8043000F37E
:104D8000668108F108081B9A0137144421AB072FEC
:104D900027942697C8F80420C8F800307FF7C4ACE1
:104DA00025AA0B990C9802F0A7FB00287FF4A9AB69
:104DB000C846279CBAE425AA0B990C9802F09CFBE4
:104DC00000283FF4FDACFFF79CBBDDF81CB0012BC5
:104DD00000F07E81022B71D1CDF81CB0002400259B
:104DE000D4E525AA0B990C9802F086FB00287FF4E5
:104DF00088ABC846279C86E425AA0B990C9802F03C
:104E00007BFB00287FF47DABC846279C29E401206A
:104E1000269B2D4A03440444072B27942693C8F865
:104E20000400C8F8002040F3D88225AA0B990C98FA
:104E300002F062FB00287FF464ABC8461F99279CF0
:104E400029B9139B1BB9079BD8077FF56FAC19983D
:104E5000269B0246013322441A9C072B2792C8F84E
:104E60000040C8F80400269300F3318408F10808D4
:104E70000029C0F20984139901338C18072B279459
:104E80002693C8F80060C8F804107FF74DAC25AA37
:104E90000B990C9802F030FB00287FF432AB279C72
:104EA000C84643E425AA0B990C9802F025FB00287C
:104EB0007FF427ABC846279CFFF7E5BB00240025FD
:104EC000CDF81CB0494604E03C820008508200083E
:104ED0003146E20842EA4572E80804F00703054655
:104EE0001446303354EA050201F8013C01F1FF3663
:104EF000EED1079AD2077FF559AD302B3FF456AD6E
:104F00003023023906F8013CA9EB01030E930E464B
:104F1000FFF736BB1F9900297FF779AF129B139AD1
:104F20009342A8BF1346002B1F460BDD269B3C4433
:104F30000133072B279488E8C000269300F3FB82F7
:104F400008F10808129B002FA8BFDB1B002B1F468F
:104F500040F3D780102B40F33484BA4D42462146AB
:104F6000B0464FF0100B2E46269B0C9C0B9D04E088
:104F70000832103F102F40F3B58001331031072B5A
:104F80002791269382E84008F2DD25AA294620468B
:104F900002F0B2FA00287FF4B4AA4A462799269B69
:104FA000E7E7002D08BF0A2CC0F090804E4620464F
:104FB00029460A22002302F085FF303206F8012D2F
:104FC0002046294600230A2202F07CFF04460D46B3
:104FD00054EA0503EBD1A9EB06030E93FFF7D0BA11
:104FE0000A9B4E460E93FFF7CBBA5E1E002E7FF74C
:104FF000CAAE102E40F3E38322464FF0100B914DC2
:105000000C9C04E0103E102E08F1080815DD013755
:105010001032072F2792269788E82008F2DD25AA6C
:105020000B99204602F068FA00287FF46AAA103E25
:10503000102EC846279A269FE9DC144601373444CF
:10504000072F2794269788E860007FF79AAE25AA55
:105050000B990C9802F050FA00287FF452AA279C72
:10506000269FC8468FE604321C68002501230F9254
:10507000FFF768BA1C6804330F9300252AE41C6804
:105080000433E51722460F932B46002A73F10003E1
:10509000BFF668AC2D27644265EB45058DF8777047
:1050A0000123FFF753BA0F9900250A4604320C6812
:1050B0000F92FFF747BA144601333444072B279465
:1050C000269388E860007FF72FABE0E6DDF81CB0A0
:1050D000012342AE3034CDF81CB006F8414D0E939A
:1050E000FFF74EBA35460C464646904601333C44DF
:1050F000072B2794269388E8A00000F3468208F146
:1051000008081F9A139B9A4245DB079BD90742D494
:10511000139B12989A1A1D1A9542A8BF1546002D86
:105120000EDD2699064401312C440729C8F8006099
:105130002794C8F80450269100F3168208F1080855
:10514000002DB4BF1646561B002E7FF7EFAA102E77
:1051500040F3F38222461027269B3A4DDDF830B00B
:105160000B9C04E008F10808103E102EA3DD01336B
:105170001032072B2792269388E8A000F2DD25AA9B
:105180002146584602F0B8F900287FF4BAA9C8466B
:10519000279A269BE8E7269B199801331A9904441D
:1051A000072B2794C8F80010C8F80400269300F3D2
:1051B000CF8108F10808ABE7079BDA073FF5ADADF3
:1051C0000123269F1C441F44072F2794C8F8006022
:1051D0002697C8F804307FF7D4AD25AA0B990C9810
:1051E00002F08AF900287FF48CA9C846279C269FE4
:1051F000C9E525AA0B990C9802F07EF900287FF4E6
:1052000080A9C846279C269F96E525AA0B990C984D
:1052100002F072F900287FF474A9C846279C269FE3
:1052200099E50F9C073424F0070404F10801D4E940
:1052300000230F9114461D46FFF78FBB4E46FFF724
:105240009FB900BF5082000825AA0B990C9802F064
:1052500053F900287FF455A9C846279CFFF716BAD2
:10526000159C22462046149C2346214602F0ECFD64
:10527000002840F073820A9B0133119B23F0200326
:105280000E9300F09C81472B00F0D6804BF4807386
:105290000793149B1F1E159B0893B7BF3B46002323
:1052A00003F100472D231093119B662B00F0908192
:1052B000462B00F0A48002200E9B23A9452B0ABF99
:1052C0000A9B0A9D5D1C8DE82100049120A81FA95E
:1052D0003B460390089A02910C9800F0ADFB119B9D
:1052E0000646672B40F0BA811BF0010F00F02382C5
:1052F0007419169A0898179B394602F073FD002816
:1053000040F02481239BA34206D230215A1C2392D1
:105310001970239B9C42F9D89B1B13930E9B472B20
:1053200000F0A280119B652B40F3A781119B662B97
:105330001F9B129300F07181139B129A19469142A0
:1053400000F35D811BF0010F40F0F08122EAE2736F
:10535000089367230E921193109B002B7DD10A9323
:105360009DF87770FFF714B924F0070423681593AC
:105370006368149304F108030F93FFF72FBB0F9A90
:10538000136804320F92099A1A60FFF704B8269B3B
:10539000AF4DFFF7ADB925AA0B990C9802F0ACF808
:1053A00000287FF4AEA8C84631E40F9A13460433B0
:1053B0000F93099B1168DD171A462B46C1E900239C
:1053C000FEF7E9BF25AA0B990C9802F095F8002882
:1053D0007FF497A8C846279C32E408F108082FE517
:1053E00040210C9801F058FA0B9A106010610028C7
:1053F00000F0148240230B9A5361FEF7BCBF0320D8
:105400000A9C23A98DE81100049120A81FA90390EC
:10541000089A3B4602910C9800F00EFB2546064682
:10542000119B7419462B7FF464AF3378302B00F056
:1054300087811F9D2C445CE70A9B002B08BF01233A
:105440000A9323E730460A9502F028F80F940E904D
:10545000CDF81CB00346FFF7E7B92D2700238DF8E0
:1054600077700A93FFF795B81F9B1A461293033380
:1054700004DB0A9B19469142BFF65EAF119B023BCB
:105480001193129B9DF84420013B002B8DF8842042
:10549000B4BF2D222B221F93B8BF129B8DF88520FD
:1054A000B8BFC3F10103092B40F31F810DF1930035
:1054B0000146684C00E0114684FB0352DD17C5EB42
:1054C000A20505EB8502A3EB42023032092D01F85B
:1054D000012C2B4601F1FF32EDDC30330239DCB216
:1054E000884202F8014C40F292810DF18601134688
:1054F00001E013F8014B834201F8014BF9D101336C
:105500009B1A0DF18602134421AA9B1A139A1B932E
:10551000012A13440E9340F348810E9B199A1344B9
:105520000E9323EAE37308930023129314E7279C56
:10553000269AFFF776B825AA0B990C9801F0DCFFA4
:1055400000287EF4DEAFC846279CFBE42346E3E652
:1055500025AA0B990C9801F0CFFF00287EF4D1AF5B
:10556000C8461F9A279CD3E525AA0B990C9801F0F1
:10557000C3FF00287EF4C5AF1F9A139BC846279C23
:105580009A1ADDE5269BFFF7FEB825AA0B990C9821
:1055900001F0B2FF00287EF4B4AFC846279CB0E506
:1055A0000A9B3746062B28BF06230A9612960893B5
:1055B0000F94CDF81CB00E93274EFEF7E9BF0623DB
:1055C0000A9363E62D231F468DF87730FFF728BA3C
:1055D00003200A9C23A98DE81100049120A81FA98B
:1055E0000390089A3B4602910C9800F025FA254654
:1055F0000646041919E7269B154DFFF77EBB199A3D
:10560000139B1344129A0E93002A40F3C78023EA97
:10561000E3730893672311939EE6002B40F3E18028
:105620000A9A002A40F0B0801BF0010F40F0AC80D5
:1056300008930E9390E60A9B0F9408930E930A909A
:10564000CDF81CB012909DF87770FEF7A1BF00BF97
:10565000508200086766666634820008119B472BFB
:105660007FF446AE1BF0010F7FF4DAAE239B9B1B49
:1056700013930E9B472B3FF4F7AE1F9B129300E74B
:1056800000200A90FEF7BCBE4F42103135DA1024DC
:105690006A4DDDF830B004E008F10808103F102F23
:1056A0002CDD01331032072B27922693C8F80050C7
:1056B000C8F80440F0DD25AA0B99584601F01CFFFC
:1056C00000287EF41EAFC846279A269BE6E725AA47
:1056D0000B990C9801F010FF00287EF412AFC84619
:1056E0001F99279A269BFFF7C3BB302213448DF8DE
:1056F00087308DF8862022AB06E7504D01333A44BF
:10570000072B88E8A0002792269308F108087FF766
:10571000B2AB25AA0B990C9801F0EEFE00287EF49E
:10572000F0AEC846279A269BFFF7A5BB129B199A95
:1057300013440E936BE7239BEEE5269B3F4DBBE4A2
:10574000169A0898179B394602F04CFB00287FF404
:1057500070AEC5F101051F952C44CAE5149B384E67
:10576000002BBEBF2D231F468DF877304FF003036B
:105770001A4608934FF00003A8BF9DF877701946AA
:105780000A93304BFFF754B9129B199A13440A9AA3
:105790001A4422EAE2730E920893DDE5129B0E9AF8
:1057A000C3F101031A441346C3E71BF0010312932C
:1057B0007FF4B3AE0E9B23EAE3730893CCE51F4D51
:1057C0003CE4269B1D4D91E40F9D9AF8013028681A
:1057D000A24640EAE0700A90284604300F90FEF797
:1057E0000DBE0A9B13B91BF0010F02D0199B0133A8
:1057F000CDE701231CE78DF87710FFF780B98DF80E
:105800007710FFF73AB98DF87710FFF74FB80DF121
:10581000860379E68DF87710FFF7B2B94FF0FF32C3
:105820000C2309920C9A1360FEF774BE8DF8771062
:10583000FFF7C4B88DF87710FFF778B850820008EA
:1058400008820008048200082DE9F8432C4D064622
:10585000286898460F469146FEF772FD294B1C6852
:10586000D4F84831002B3ED05A681F2A1CDC02F1C4
:10587000010E76B1012103EB8204C4F88890D3F8BD
:10588000880191400843022EC3F88801C4F80881BA
:1058900023D00232C3F804E0286843F82270FEF7F0
:1058A00051FD0020BDE8F883174B0BB34FF4C870CF
:1058B000AFF300800346D8B10020D4F848114FF070
:1058C000010E586019600246C4F84831C3F88801D7
:1058D000C3F88C01002EDCD0CCE7D3F88C01014357
:1058E000C3F88C11D5E704F5A673C4F84831BBE7BB
:1058F0002868FEF727FD4FF0FF30BDE8F88300BFB2
:1059000040040020F8810008000000002DE9F04F5D
:1059100003690F6983B09F4200F38880013F01F162
:10592000140600F1140A56F827305AF827200133DC
:10593000B2FBF3F8BB00009306EB03095344019359
:10594000B8F1000F3BD00023B4461C46D6465CF8A5
:10595000042BDEF800501FFA82FB08FB0B33120CFD
:105960004FEA134B08FB02BB9AB2A21AABB21FFA62
:105970008BF41A44C4EB154404EB224492B242EA7D
:105980000442E1454EF8042B4FEA24444FEA1B43FE
:10599000DDD2009B5AF803308BB9019C231F9A4536
:1059A0000CD254F8043C4BB9A4F1080302E01A6885
:1059B000043B1AB99A4507F1FF37F8D3076104464B
:1059C00001F05CFC00282DDB5546002308F101089E
:1059D00056F8041B28688AB29A1A0B0C81B20A4442
:1059E000C3EB104303EB224392B242EA0342B145B8
:1059F00045F8042B4FEA2343EAD25AF827200AEB52
:105A000087037AB91A1F92450BD253F8042C42B976
:105A1000083B02E01A68043B1AB99A4507F1FF37C0
:105A2000F8D32761404603B0BDE8F08F002003B0F3
:105A3000BDE8F08F000000002DE9F04F056C9BB031
:105A4000044692469B46279E4DB10123426C29464F
:105A50009340AB606A6001F039FA00232364BBF124
:105A6000000F5D4635DB002333609D4BAB4315D003
:105A7000002200235046594602F0B4F9804600281F
:105A80002DD00123269A1360289B002B00F0BD80A7
:105A90009448186001381BB0BDE8F08F42F20F73D4
:105AA000269A1360BAF1000F0DD1C5F3130555B94D
:105AB000289B8D48002BEED000F10803289A136034
:105AC0001BB0BDE8F08F289B8848002BE3D0C31C97
:105AD000F4E701232BF000453360AB46C5E718AA75
